:020000040800F2
:1000000000500020BD1100086111000869110008AE
:10001000711100087911000881110008000000002A
:100020000000000000000000000000006133000834
:1000300089110008000000004135000895110008F2
:100040000512000805120008051200080512000834
:100050000512000805120008051200080512000824
:100060000512000805120008051200080512000814
:100070000512000805120008051200080512000804
:1000800005120008051200080512000805120008F4
:1000900005120008051200080512000805120008E4
:1000A00005120008051200080512000805120008D4
:1000B00005120008051200080512000805120008C4
:1000C00005120008051200080512000805120008B4
:1000D00005120008051200080512000805120008A4
:1000E0008910000805120008051200080000000031
:1000F0000000000000000000000000000000000000
:0C01000000000000000000005FF808F1A3
:1001100010B5054C237833B9044B13B10448AFF341
:1001200000800123237010BD1C000020000000008F
:10013000DC3A000808B5034B1BB103490348AFF391
:10014000008008BD0000000020000020DC3A00080C
:1001500080B584B000AF7860794B9B6803F0806312
:10016000002B02D00023FB7316E0754B9B6803F055
:100170000063002B02D00123FB730DE0704B9B68E2
:1001800003F08053002B02D00223FB7304E06D4880
:1001900000F0E0FD0023CFE0694AFB7B18331B0130
:1001A000134400221A60664AFB7B18331B01134478
:1001B000043300221A60624AFB7B1B01134403F5DF
:1001C000C47300221A605E4AFB7B1B01134403F5D3
:1001D000C67300221A605A4AFB7B18331B01134472
:1001E00019687B681B685A055548FB7B0A4318331E
:1001F0001B0103441A60524AFB7B18331B01134452
:100200001A684F49FB7B22F0020218331B010B4492
:100210001A604B4AFB7B18331B0113441A68484988
:10022000FB7B22F0040218331B010B441A607B682D
:100230001B791A464249FB7B02F00F0218331B015F
:100240000B4404331A607B685B791A467B689B79A0
:100250001B021A437B68DB791B0442EA03017B68BB
:100260001B7A1A063648FB7B0A431B01034403F53D
:10027000C4731A607B685B7A1A467B689B7A1B02A0
:100280001A437B68DB7A1B0442EA03017B681B7B11
:100290001A062B48FB7B0A431B01034403F5C67374
:1002A0001A60274AFB7B18331B0113441A68244940
:1002B000FB7B42F0010218331B010B441A60002340
:1002C000BB600BE0BB680133BB60BB681E4A934256
:1002D00004D91E4800F03EFD00232DE0184B9A681B
:1002E000FB7BDB0022FA03F303F00103002BE9D0D0
:1002F000134B9A68FB7BDB00022101FA03F31340E6
:10030000002B0BD00E4B9A68FB7BDB00012101FA1E
:1003100003F30B4913438B6001230DE0084B9A68EC
:10032000FB7BDB00012101FA03F3054913438B60DA
:10033000074800F00FFD002318461037BD4680BD6A
:1003400000640040F43A000840420F001C3B0008E3
:100350003C3B000880B584B000AF78602A4BDB6876
:1003600003F00303002B04D1284800F0F3FC002322
:1003700045E0254BD3F8B0315B0DC3F30A027B682F
:100380001A60214BD3F8B431DBB203F00F03DAB2B9
:100390007B681A711C4BD3F8B831FB60FB68DAB28A
:1003A0007B685A71FB681B0ADAB27B689A71FB683A
:1003B0001B0CDAB27B68DA71FB681B0EDAB27B6861
:1003C0001A72114BD3F8BC31BB60BB68DAB27B68E0
:1003D0005A72BB681B0ADAB27B689A72BB681B0C44
:1003E000DAB27B68DA72BB681B0EDAB27B681A730A
:1003F000054BDB68044A43F02003D3600123184611
:100400001037BD4680BD00BF006400405C3B000863
:1004100080B582B000AF78600B46FB707B6840F21D
:10042000DF721A607B6808221A717B6802225A7197
:100430007B6801229A717B68FA78DA717B68002206
:100440001A727B6800225A727B6800229A727B685B
:100450000022DA727B6800221A737868FFF778FE50
:10046000034618460837BD4680BD000080B584B0FD
:1004700000AF78600023FB6008E0FB680133FB609D
:10048000FB68104A934201D9002316E07868FFF711
:1004900061FF034683F00103DBB2002BEDD17B68E3
:1004A0001B68B3F5FD6F01D0002306E07B689B79E4
:1004B000412B01D0002300E0012318461037BD4630
:1004C00080BD00BF40420F0080B483B000AF7860B1
:1004D0007B68DB790C2B01D000230AE07B681B7A58
:1004E0001B027A68527A1343002B00DA03339B1005
:1004F0009BB218460C37BD4680BC704780B483B0B1
:1005000000AF78607B68DB790D2B01D0002301E020
:100510007B681B7A18460C37BD4680BC704780B498
:1005200083B000AF78607B68DB79052B01D00023B6
:1005300003E07B681B7A283BDBB218460C37BD46CC
:1005400080BC704780B483B000AF78607B68DB7993
:10055000112B01D000230AE07B681B7A1A46642322
:1005600002FB03F3044AA2FB0323DB09DBB21846B8
:100570000C37BD4680BC70478180808080B483B0DA
:1005800000AF0D4B1B680C4A43F4807313600B4B98
:100590007B6005E07B68013B7B607B68002B06D0BD
:1005A000054B5B6903F00103002BF3D000E000BFB3
:1005B0000C37BD4680BC704700540040A086010047
:1005C00080B400AF044B1B68034A43F4007313600C
:1005D00000BFBD4680BC70470054004080B485B069
:1005E00000AF03460A46FB711346BB71FB795A0004
:1005F000BB791A430D4B1A610D4BFB6005E0FB689C
:10060000013BFB60FB68002B0AD0084B5B6903F0E1
:100610000203002BF3D0054B5B69044B9B6900E0A0
:1006200000BF1437BD4680BC704700BF0054004077
:10063000A086010080B485B000AF0346FB71134B68
:10064000FB6005E0FB68013BFB60FB68002B16D0FC
:100650000F4B5B6903F08003002BF3D00C4AFB794E
:10066000136105E0FB68013BFB60FB68002B08D0D1
:10067000074B5B6903F00403002BF3D002E000BFDB
:1006800000E000BF1437BD4680BC7047A086010063
:100690000054004080B582B000AF7860234B1B78D7
:1006A000002B1BD1214B5B78013B032B36D801A2D9
:1006B00052F823F0C5060008CB060008D106000852
:1006C000D706000800F0C6F82BE000F00FF928E08C
:1006D00000F058F925E000F0A1F922E0134B1B7857
:1006E000012B1ED1114B9B78013B032B18D801A283
:1006F00052F823F0050700080B070008110700084F
:100700001707000800F028FA0BE000F049FA08E0AB
:1007100000F06AFA05E000F08BFA02E000BF00E0AA
:1007200000BF0A2001F002FDB8E700BF0000002072
:1007300080B58AB000AF7860454B9B78042B79D8A0
:1007400001A252F823F000BF350800085D07000839
:1007500093070008C9070008FF07000807F11803FE
:100760000D211846FFF754FE0346002B64D007F115
:1007700008031846FFF77AFE0346002B5CD007F10A
:1007800008031846FFF7BAFE03461A46304BDA70E4
:1007900052E007F118030C211846FFF739FE034613
:1007A000002B4BD007F108031846FFF75FFE034606
:1007B000002B43D007F108031846FFF785FE0346D8
:1007C0001A46234BDA8039E007F118030521184651
:1007D000FFF71EFE0346002B32D007F10803184630
:1007E000FFF744FE0346002B2AD007F10803184602
:1007F000FFF795FE03461A46154B1A7120E007F1E4
:10080000180311211846FFF703FE0346002B19D0E9
:1008100007F108031846FFF729FE0346002B11D005
:1008200007F108031846FFF78DFE03461A46084BEA
:100830005A7107E000BF06E000BF04E000BF02E01D
:1008400000BF00E000BF0A2001F070FC74E700BFA9
:100850000000002080B500AF0721002000F086FBDB
:100860001D4800F04BFB0021012000F07FFB00F051
:10087000D9FB0821012000F079FB184800F03EFB6D
:100880000021032000F072FB00F09AFB08210320F6
:1008900000F06CFB124800F031FB0021052000F055
:1008A00065FB00F08DFB0821052000F05FFB0D4883
:1008B00000F024FB0021072000F058FB00F080FB33
:1008C0000821072000F052FB074800F017FB00F05A
:1008D000EBFA00BF80BD00BF7C3B00088C3B0008EA
:1008E000943B0008983B0008A03B000880B500AF8F
:1008F0000721002000F03AFB1D4800F0FFFA00211C
:10090000012000F033FB00F05BFB0821012000F028
:100910002DFB184800F0F2FA0021032000F026FB1E
:1009200000F080FB0821032000F020FB124800F0BB
:10093000E5FA0021052000F019FB00F041FB082139
:10094000052000F013FB0D4800F0D8FA0021072025
:1009500000F00CFB00F034FB0821072000F006FB40
:10096000074800F0CBFA00F09FFA00BF80BD00BF3F
:100970007C3B00088C3B0008943B0008983B000837
:10098000A03B000880B500AF0721002000F0EEFA80
:100990001D4800F0B3FA0021012000F0E7FA00F052
:1009A0000FFB0821012000F0E1FA184800F0A6FA38
:1009B0000021032000F0DAFA00F002FB08210320F6
:1009C00000F0D4FA124800F099FA0021052000F056
:1009D000CDFA00F027FB0821052000F0C7FA0D48EA
:1009E00000F08CFA0021072000F0C0FA00F0E8FACD
:1009F0000821072000F0BAFA074800F07FFA00F05B
:100A000053FA00BF80BD00BF7C3B00088C3B000850
:100A1000943B0008983B0008A03B000880B500AF5D
:100A20000721002000F0A2FA1D4800F067FA00211B
:100A3000012000F09BFA00F0C3FA0821012000F029
:100A400095FA184800F05AFA0021032000F08EFAB7
:100A500000F0B6FA0821032000F088FA124800F0EE
:100A60004DFA0021052000F081FA00F0A9FA0821D2
:100A7000052000F07BFA0D4800F040FA0021072025
:100A800000F074FA00F0CEFA0821072000F06EFAA8
:100A9000074800F033FA00F007FA00BF80BD00BF3E
:100AA0007C3B00088C3B0008943B0008983B000806
:100AB000A03B000880B485B000AF03463960FB80DE
:100AC0000023FB730023BB73FB88002B23D13B68FF
:100AD00030221A703B68013300221A7036E0FA881F
:100AE0001C4BA3FB0213D9080B469B000B445B0075
:100AF000D31A9BB2DAB2FB7B3032D2B210333B4412
:100B000003F8082CFB88134AA2FB0323DB08FB80B5
:100B1000FB7B0133FB73FB88002BE0D10EE0FB7BFA
:100B2000013BFB73FA7BBB7B39680B4410323A44C0
:100B300012F8082C1A70BB7B0133BB73FB7B002BB4
:100B4000EDD1BB7B3A68134400221A701437BD46BE
:100B500080BC7047CDCCCCCC80B582B000AF0E4B02
:100B6000DB781A463B4619461046FFF7A3FF3221B1
:100B7000002000F0FBF9094800F0C0F93221042000
:100B800000F0F4F93B46184600F0B8F900F08CF993
:100B900000BF0837BD4680BD000000208C3B000828
:100BA00080B582B000AF0E4BDB883A46114618463E
:100BB000FFF780FF3721002000F0D8F9094800F046
:100BC0009DF93221042000F0D1F93B46184600F08F
:100BD00095F900F069F900BF0837BD4680BD00BF38
:100BE00000000020943B000880B582B000AF0E4B9F
:100BF0001B791A463B4619461046FFF75BFF232137
:100C0000002000F0B3F9094800F078F932210420FF
:100C100000F0ACF93B46184600F070F900F044F9DA
:100C200000BF0837BD4680BD00000020AC3B000877
:100C300080B582B000AF0E4B5B791A463B46194631
:100C40001046FFF737FF2821002000F08FF90948F0
:100C500000F054F93221042000F088F93B46184690
:100C600000F04CF900F020F900BF0837BD4680BD08
:100C700000000020A03B000880B483B000AF034612
:100C8000FB7197F90730002B0BDBFB7903F01F0298
:100C9000064997F907305B09012000FA02F241F892
:100CA000232000BF0C37BD4680BC704700E100E048
:100CB00080B500AF234B9B69224A43F00803936140
:100CC000204B9B691F4A43F0010393611E4B5B68F5
:100CD0001D4A9BB253601C4B5B681B4A43F00843A0
:100CE00043F408035360184BDB68174A43F470431E
:100CF000D360164B5B69154A1B0C1B045361134BE5
:100D00005B69124A43F4885343F011035361104B5B
:100D10001B680F4A43F4704313600D4BDB680C4AA9
:100D200043F47043D3600A4B9B68094A23F4704331
:100D30009360074B4FF470425A612820FFF79CFFE5
:100D400000BF80BD00100240000C014000000140C7
:100D50000004014080B483B000AF78600DE000BFB4
:100D60000B4B1B6803F08003002BF9D07B681A78CB
:100D7000074B5A607B6801337B607B681B78002BD4
:100D8000EDD100BF00BF0C37BD4680BC704700BF2F
:100D90000038014080B582B002AFFFF789FF002321
:100DA00001930223009300234FF4807209490A48FB
:100DB00001F076F8002301930223009300234FF4FF
:100DC00080720649064801F06BF801F0E5F900BFB2
:100DD000FDE700BFB83B000895060008C03B0008CF
:100DE0003107000880B582B000AF0346FB710B46A7
:100DF000BB7113467B71FFF7C1FB00213C20FFF75D
:100E0000EDFB0020FFF716FCFB791846FFF712FCFC
:100E1000BB791846FFF70EFC7B791846FFF70AFCF2
:100E2000FFF7CEFB00BF0837BD4680BD80B584B05C
:100E300000AF7860FFF7A2FB00213C20FFF7CEFB5C
:100E40004020FFF7F7FB0023FB810AE07B681B785B
:100E50001846FFF7EFFB7B6801337B60FB890133AA
:100E6000FB81FB89B3F5806FF0D3FFF7A9FB00BFCF
:100E70001037BD4680BD80B582B000AF03460A463C
:100E8000FB711346BB71FA79FB7919462220FFF7F3
:100E9000A9FFBB797F2219462120FFF7A3FF00BFDE
:100EA0000837BD4680BD000080B500AF002100209E
:100EB000FFF7E1FF0248FFF7B9FF00BF80BD00BFA9
:100EC0003800002080B483B000AF0346FB71FB798B
:100ED0001F2B02D9FB797E2B01D93F23FB71FB79B4
:100EE000A3F1200213469B001344034A13441846FF
:100EF0000C37BD4680BC7047DC3B000880B584B031
:100F000000AF786027E07B681B781846FFF7DAFFB0
:100F1000F8600023FB720FE0134B1B68FA6812782D
:100F20001A70114B1B6801330F4A1360FB680133C1
:100F3000FB60FB7A0133FB72FB7A042BECD90A4B82
:100F40001B6800221A70084B1B680133064A1360A5
:100F50007B6801337B607B681B78002BD3D100BF9B
:100F600000BF1037BD4680BD0C00002080B483B0A8
:100F700000AF03460A46FB711346BB71BB797E2B5B
:100F800002D97F23BB7104E0FB79062B01D907232B
:100F9000FB71094B1B68FA79D2011344074A1360AD
:100FA000064B1A68BB791344044A136000BF0C3720
:100FB000BD4680BC704700BF080000200C00002028
:100FC00080B400AF164B1B685A1C15490A60FF22FB
:100FD0001A70134B1B685A1C11490A6081221A703F
:100FE0000F4B1B685A1C0E490A6081221A700C4B69
:100FF0001B685A1C0A490A6081221A70084B1B6838
:101000005A1C07490A6081221A70054B1B685A1C3A
:1010100003490A60FF221A7000BFBD4680BC7047BA
:101020000C00002080B400AF164B1B685A1C1549F9
:101030000A60FF221A70134B1B685A1C11490A6080
:10104000FF221A700F4B1B685A1C0E490A60FF22C0
:101050001A700C4B1B685A1C0A490A60FF221A704E
:10106000084B1B685A1C07490A60FF221A70054B7F
:101070001B685A1C03490A60FF221A7000BFBD4654
:1010800080BC70470C00002080B400AF324B5B691D
:1010900003F48053002B15D02F4B4FF480525A612C
:1010A0002E4B1B78002B0DD12C4B5B78012B03D1E1
:1010B0002A4B04225A7005E0284B5B78013BDAB2D8
:1010C000264B5A70244B5B6903F40053002B15D058
:1010D000214B4FF400525A61204B1B78002B0DD14D
:1010E0001E4B5B78042B03D11C4B01225A7005E088
:1010F0001A4B5B780133DAB2184B5A70164B5B69A6
:1011000003F48043002B0ED0134B4FF480425A61FE
:10111000124B1B78002B06D1104B5A780F4B9A704C
:101120000E4B01221A700C4B5B6903F40043002B39
:101130000ED0094B4FF400425A61084B1B78002B2C
:1011400006D1064B5A78054B9A70044B01221A704F
:1011500000BFBD4680BC7047000401400000002075
:1011600080B400AF00BFFDE780B400AF00BFFDE773
:1011700080B400AF00BFFDE780B400AF00BFFDE763
:1011800080B400AF00BFFDE780B400AF00BFBD4634
:1011900080BC704780B500AF00F036F801F048FC25
:1011A0000346012B01D002F0EFF900BF80BD80B4EF
:1011B00000AF00BFBD4680BC70470000FFF7F7FFDF
:1011C0000B480C490C4A002302E0D458C4500433A5
:1011D000C4188C42F9D3094A094C002301E013607A
:1011E0000432A242FBD302F047FCFFF7D3FD704765
:1011F000000000201C000020C43D00081C0000204E
:10120000881D0020FEE7000080B400AF054B1B786E
:101210001A46054B1B681344034A136000BFBD46C2
:1012200080BC7047140000203804002080B485B0D2
:1012300000AFF860B9607A60FB68064A1A60BB6864
:10124000054A1A607B6880221A6000BF1437BD46C9
:1012500080BC70473C0400209804002080B485B016
:1012600000AFF860B9607A60FB68074A1A60BB6833
:10127000064A1A607B684FF480721A6000BF143708
:10128000BD4680BC704700BF98060020F4060020D1
:1012900080B483B000AF78607B6803F108027B689C
:1012A0005A607B684FF0FF329A607B6803F1080256
:1012B0007B68DA607B6803F108027B681A617B68EF
:1012C00000221A6000BF0C37BD4680BC704780B456
:1012D00083B000AF78607B6800221A6100BF0C37D2
:1012E000BD4680BC704780B485B000AF786039607F
:1012F0007B685B68FB603B68FA685A60FB689A68C9
:101300003B689A60FB689B683A685A60FB683A6879
:101310009A603B687A681A617B681B685A1C7B6814
:101320001A6000BF1437BD4680BC704780B485B0DA
:1013300000AF786039603B681B68BB60BB68B3F185
:10134000FF3F03D17B681B69FB600CE07B680833BF
:10135000FB6002E0FB685B68FB60FB685B681B6826
:10136000BA689A42F6D2FB685A683B685A603B6892
:101370005B683A689A603B68FA689A60FB683A680A
:101380005A603B687A681A617B681B685A1C7B68E4
:101390001A6000BF1437BD4680BC704780B485B06A
:1013A00000AF78607B681B69FB607B685B687A686C
:1013B00092689A607B689B687A6852685A60FB689A
:1013C0005B687A689A4203D17B689A68FB685A60C6
:1013D0007B6800221A61FB681B685A1EFB681A6052
:1013E000FB681B6818461437BD4680BC7047000078
:1013F00080B584B000AF786039607B68FB60FB68C3
:10140000002B0BD14FF0500383F31188BFF36F8F84
:10141000BFF34F8FBB6000BF00BFFDE702F036F89F
:10142000FB681A68FB68DB6BF968096C01FB03F366
:101430001A44FB689A60FB6800229A63FB681A688A
:10144000FB685A60FB681A68FB68DB6B013BF96854
:10145000096C01FB03F31A44FB68DA60FB68FF22A6
:1014600083F84420FB68FF2283F845203B68002B6B
:1014700014D1FB681B69002B1AD0FB681033184687
:1014800001F016F90346002B12D00D4B4FF080529D
:101490001A60BFF34F8FBFF36F8F09E0FB68103303
:1014A0001846FFF7F5FEFB6824331846FFF7F0FEF9
:1014B00002F01CF8012318461037BD4680BD00BF5E
:1014C00004ED00E080B58EB002AFF860B9607A60DC
:1014D0003B60FB68002B0BD14FF0500383F3118866
:1014E000BFF36F8FBFF34F8FBB6200BF00BFFDE73D
:1014F0003B68002B0BD14FF0500383F31188BFF3EF
:101500006F8FBFF34F8F7B6200BF00BFFDE77B682B
:10151000002B02D0BB68002B01D0012300E0002388
:10152000002B0BD14FF0500383F31188BFF36F8F63
:10153000BFF34F8F3B6200BF00BFFDE77B68002B0E
:1015400002D1BB68002B01D1012300E00023002B56
:101550000BD14FF0500383F31188BFF36F8FBFF3AC
:101560004F8FFB6100BF00BFFDE750237B617B69AC
:10157000502B0BD04FF0500383F31188BFF36F8FC4
:10158000BFF34F8FBB6100BF00BFFDE77B693B68C6
:10159000FB62FB6A002B0DD0FB6A012283F8462018
:1015A00097F83820FB6A009313467A68B968F868A0
:1015B00000F005F8FB6A18463037BD4680BD80B59F
:1015C00084B000AFF860B9607A60FB70BB68002B34
:1015D00003D1BB69BA691A6002E0BB697A681A6014
:1015E000BB69FA68DA63BB69BA681A640121B86931
:1015F000FFF7FEFEBB69FA7883F84C2000BF103776
:10160000BD4680BD80B58EB000AFF860B9607A602D
:101610003B6000237B63FB683B633B6B002B0BD180
:101620004FF0500383F31188BFF36F8FBFF34F8FD9
:10163000BB6200BF00BFFDE7BB68002B03D13B6B63
:101640001B6C002B01D1012300E00023002B0BD1E8
:101650004FF0500383F31188BFF36F8FBFF34F8FA9
:101660007B6200BF00BFFDE73B68022B03D13B6BF1
:10167000DB6B012B01D1012300E00023002B0BD1F8
:101680004FF0500383F31188BFF36F8FBFF34F8F79
:101690003B6200BF00BFFDE701F0CAF90346002B23
:1016A00002D17B68002B01D1012300E00023002B35
:1016B0000BD14FF0500383F31188BFF36F8FBFF34B
:1016C0004F8FFB6100BF00BFFDE701F0DFFE3B6B0A
:1016D0009A6B3B6BDB6B9A4202D33B68022B29D19E
:1016E0003A68B968386B00F00FFAF8623B6B5B6AD6
:1016F000002B10D03B6B2433184600F0D9FF034673
:10170000002B13D03F4B4FF080521A60BFF34F8F26
:10171000BFF36F8F0AE0FB6A002B07D0394B4FF005
:1017200080521A60BFF34F8FBFF36F8F01F0DEFE60
:10173000012363E07B68002B03D101F0D7FE002377
:101740005CE07B6B002B06D107F11403184601F017
:1017500013F801237B6301F0C9FE00F085FD01F061
:1017600095FE3B6B93F844305BB2B3F1FF3F03D17E
:101770003B6B002283F844203B6B93F845305BB20F
:10178000B3F1FF3F03D13B6B002283F8452001F00A
:10179000ADFE3A1D07F114031146184601F002F898
:1017A0000346002B24D1386B00F0A6FA0346002B29
:1017B00018D03B6B10337A681146184600F026FFAC
:1017C000386B00F031FA00F05DFD0346002B7FF42A
:1017D0007CAF0C4B4FF080521A60BFF34F8FBFF3BA
:1017E0006F8F72E7386B00F01FFA00F04BFD6CE76B
:1017F000386B00F019FA00F045FD00231846383721
:10180000BD4680BD04ED00E080B590B000AFF8604B
:10181000B9607A603B60FB68BB63BB6B002B0BD18C
:101820004FF0500383F31188BFF36F8FBFF34F8FD7
:10183000BB6200BF00BFFDE7BB68002B03D1BB6BE1
:101840001B6C002B01D1012300E00023002B0BD1E6
:101850004FF0500383F31188BFF36F8FBFF34F8FA7
:101860007B6200BF00BFFDE73B68022B03D1BB6B6F
:10187000DB6B012B01D1012300E00023002B0BD1F6
:101880004FF0500383F31188BFF36F8FBFF34F8F77
:101890003B6200BF00BFFDE701F0BAFEEFF311822B
:1018A0004FF0500383F31188BFF36F8FBFF34F8F57
:1018B000FA61BB61FB697B63BB6B9A6BBB6BDB6BD8
:1018C0009A4202D33B68022B2FD1BB6B93F8453071
:1018D00087F83330BB6B9B6BFB623A68B968B86BB7
:1018E00000F012F997F93330B3F1FF3F12D1BB6B1F
:1018F0005B6A002B16D0BB6B2433184600F0D8FE71
:101900000346002B0ED07B68002B0BD07B68012296
:101910001A6007E097F833300133DBB25AB2BB6B81
:1019200083F845200123FB6301E00023FB637B6B0D
:101930007B617B6983F3118800BFFB6B18464037DE
:10194000BD4680BD80B58CB000AFF860B9607A60EC
:101950000023FB62FB68BB62BB6A002B0BD14FF01C
:10196000500383F31188BFF36F8FBFF34F8F3B6238
:1019700000BF00BFFDE7BB68002B03D1BB6A1B6C37
:10198000002B01D1012300E00023002B0BD14FF0ED
:10199000500383F31188BFF36F8FBFF34F8FFB6149
:1019A00000BF00BFFDE701F043F80346002B02D162
:1019B0007B68002B01D1012300E00023002B0BD119
:1019C0004FF0500383F31188BFF36F8FBFF34F8F36
:1019D000BB6100BF00BFFDE701F058FDBB6A9B6B18
:1019E0007B627B6A002B1FD0B968B86A00F0F6F8FA
:1019F0007B6A5A1EBB6A9A63BB6A1B69002B0FD0B5
:101A0000BB6A1033184600F053FE0346002B07D084
:101A10003C4B4FF080521A60BFF34F8FBFF36F8F74
:101A200001F064FD012369E07B68002B03D101F024
:101A30005DFD002362E0FB6A002B06D107F1100375
:101A4000184600F099FE0123FB6201F04FFD00F003
:101A50000BFC01F01BFDBB6A93F844305BB2B3F1A1
:101A6000FF3F03D1BB6A002283F84420BB6A93F88E
:101A700045305BB2B3F1FF3F03D1BB6A002283F86C
:101A8000452001F033FD3A1D07F1100311461846B9
:101A900000F088FE0346002B23D1B86A00F016F947
:101AA0000346002B17D0BB6A24337A6811461846C8
:101AB00000F0ACFDB86A00F0B7F800F0E3FB0346B5
:101AC000002B89D10F4B4FF080521A60BFF34F8F1C
:101AD000BFF36F8F80E7B86A00F0A6F800F0D2FB82
:101AE0007AE7B86A00F0A0F800F0CCFBB86A00F022
:101AF000EDF80346002B3FF46FAF00231846303754
:101B0000BD4680BD04ED00E080B586B000AFF86052
:101B1000B9607A6000237B61FB689B6B3B61FB686B
:101B20001B6C002B0DD1FB681B68002B4DD1FB6893
:101B30009B68184600F09AFF7861FB6800229A6063
:101B400043E07B68002B19D1FB685868FB681B6C6D
:101B50001A46B96801F0B4FFFB685A68FB681B6C51
:101B60001A44FB685A60FB685A68FB689B689A4293
:101B70002BD3FB681A68FB685A6026E0FB68D868BC
:101B8000FB681B6C1A46B96801F09AFFFB68DA68BB
:101B9000FB681B6C5B421A44FB68DA60FB68DA681E
:101BA000FB681B689A4207D2FB689A68FB681B6C4B
:101BB0005B421A44FB68DA607B68022B05D13B6903
:101BC000002B02D03B69013B3B613B695A1CFB681F
:101BD0009A637B6918461837BD4680BD80B582B0D0
:101BE00000AF786039607B681B6C002B18D07B6875
:101BF000DA687B681B6C1A447B68DA607B68DA6899
:101C00007B689B689A4203D37B681A687B68DA60BA
:101C10007B68D9687B681B6C1A46386801F050FFF6
:101C200000BF0837BD4680BD80B584B000AF786086
:101C300001F02CFC7B6893F84530FB7311E07B6866
:101C40005B6A002B12D07B682433184600F030FD0D
:101C50000346002B01D000F009FEFB7B013BDBB209
:101C6000FB7397F90F30002BE9DC00E000BF7B68C5
:101C7000FF2283F8452001F039FC01F007FC7B6866
:101C800093F84430BB7311E07B681B69002B12D0C2
:101C90007B681033184600F00BFD0346002B01D083
:101CA00000F0E4FDBB7B013BDBB2BB7397F90E3068
:101CB000002BE9DC00E000BF7B68FF2283F84420B2
:101CC00001F014FC00BF1037BD4680BD80B584B064
:101CD00000AF786001F0DAFB7B689B6B002B02D1D0
:101CE0000123FB6001E00023FB6001F0FFFBFB68C8
:101CF00018461037BD4680BD80B584B000AF78600F
:101D000001F0C4FB7B689A6B7B68DB6B9A4202D163
:101D10000123FB6001E00023FB6001F0E7FBFB68AF
:101D200018461037BD4680BD80B485B000AF7860DE
:101D300039600023FB6014E00E4AFB6852F8333030
:101D4000002B0BD10B49FB683A6841F83320094A54
:101D5000FB68DB0013447A685A6006E0FB680133D5
:101D6000FB60FB68072BE7D900BF00BF1437BD46F7
:101D700080BC7047F40A002080B586B000AFF860E0
:101D8000B9607A60FB687B6101F080FB7B6993F846
:101D900044305BB2B3F1FF3F03D17B69002283F88B
:101DA00044207B6993F845305BB2B3F1FF3F03D128
:101DB0007B69002283F8452001F098FB7B699B6BCF
:101DC000002B06D17B6924337A68B968184600F085
:101DD00043FC7869FFF728FF00BF1837BD4680BD78
:101DE00080B58EB004AFF860B9607A603B607B6B01
:101DF000002B0BD14FF0500383F31188BFF36F8F8B
:101E0000BFF34F8F3B6200BF00BFFDE7BB6B002BF2
:101E10000BD14FF0500383F31188BFF36F8FBFF3E3
:101E20004F8FFB6100BF00BFFDE75C233B613B6957
:101E30005C2B0BD04FF0500383F31188BFF36F8FEF
:101E4000BFF34F8FBB6100BF00BFFDE73B69BB6BBA
:101E5000002B1ED07B6B002B1BD0BB6B7B627B6A85
:101E60007A6B1A637B6A022283F85920002303935A
:101E70007B6A029307F1140301933B6B00933B6869
:101E80007A68B968F86800F050F8786A00F0DEF80F
:101E900001E000237B617B6918462837BD4680BD81
:101EA00080B58CB004AFF860B9603B601346FB802E
:101EB000FB889B00184601F0EBFB78617B69002BE7
:101EC0000ED05C2001F0E4FBF861FB69002B03D02D
:101ED000FB697A691A6305E0786901F0A7FC01E003
:101EE0000023FB61FB69002B17D0FB69002283F8FC
:101EF0005920FA8800230393FB690293FB6A01933C
:101F0000BB6A00933B68B968F86800F00EF8F8699E
:101F100000F09CF80123BB6102E04FF0FF33BB618E
:101F2000BB6918462037BD4680BD80B588B000AF7C
:101F3000F860B9607A603B603B6B186B7B689B0014
:101F40001A46A52101F090FD3B6B1A6B7B6803F1EB
:101F50008043013B9B001344BB61BB6923F0070333
:101F6000BB61BB6903F00703002B0BD04FF050039C
:101F700083F31188BFF36F8FBFF34F8F7B6100BF77
:101F800000BFFDE7BB68002B1FD00023FB6112E000
:101F9000BA68FB69134419783A6BFB69134434330C
:101FA0000A461A70BA68FB6913441B78002B06D0E6
:101FB000FB690133FB61FB690F2BE9D900E000BF2E
:101FC0003B6B002283F8432003E03B6B002283F845
:101FD0003420BB6A372B01D93723BB623B6BBA6A0B
:101FE000DA623B6BBA6ADA643B6B00221A653B6BC0
:101FF00004331846FFF76BF93B6B18331846FFF7AD
:1020000066F93B6B3A6B1A61BB6AC3F138023B6BF2
:102010009A613B6B3A6B5A623B6B00225A653B6B91
:10202000002283F858203A68F968B86901F03AF953
:1020300002463B6B1A60FB6A002B02D0FB6A3A6BCC
:102040001A6000BF2037BD4680BD000080B582B059
:1020500000AF786001F01AFA2D4B1B6801332C4A4F
:1020600013602C4B1B68002B09D12A4A7B68136034
:10207000274B1B68012B10D100F01CFC0DE0264BF8
:102080001B68002B09D1234B1B68DA6A7B68DB6A6B
:102090009A4202D81F4A7B681360204B1B680133A9
:1020A0001E4A13601D4B1A687B685A647B68DA6AA3
:1020B0001B4B1B689A4203D97B68DB6A184A136082
:1020C0007B68DA6A13469B0013449B00154A1A4446
:1020D0007B68043319461046FFF705F901F006FA4C
:1020E0000D4B1B68002B0ED00A4B1B68DA6A7B680D
:1020F000DB6A9A4207D20C4B4FF080521A60BFF352
:102100004F8FBFF36F8F00BF0837BD4680BD00BF44
:1021100008100020340B0020141000202410002090
:1021200010100020380B002004ED00E080B584B0D2
:1021300000AF78600023FB607B68002B18D0144B45
:102140001B68002B0BD04FF0500383F31188BFF3B3
:102150006F8FBFF34F8FBB6000BF00BFFDE700F084
:1021600083F80021786800F0F1FC00F08BF8F8604B
:10217000FB68002B07D1074B4FF080521A60BFF36A
:102180004F8FBFF36F8F00BF1037BD4680BD00BFBC
:102190003010002004ED00E080B58AB004AF0023C9
:1021A000BB6000237B603A46391D07F108031846DF
:1021B000FFF73CF839687B68BA6802920193002304
:1021C000009300230A4622492248FFF709FE0346EE
:1021D000214A1360204B1B68002B02D001237B6136
:1021E00001E000237B617B69012B02D100F002FD3D
:1021F00078617B69012B16D14FF0500383F311886E
:10220000BFF36F8FBFF34F8F3B6100BF134B4FF096
:10221000FF321A60124B01221A60124B00221A6020
:1022200001F0C2F80FE07B69B3F1FF3F0BD14FF033
:10223000500383F31188BFF36F8FBFF34F8FFB60A1
:1022400000BF00BFFDE700BF1837BD4680BD00BF1F
:10225000C43B0008852800082C100020281000200E
:10226000141000200C10002080B400AF044B1B6839
:102270000133034A136000BFBD4680BC704700BFF6
:102280003010002080B584B000AF0023FB60002335
:10229000BB60424B1B68002B0BD14FF0500383F304
:1022A0001188BFF36F8FBFF34F8F3B6000BF00BF3C
:1022B000FDE701F0EBF8394B1B68013B374A13602F
:1022C000364B1B68002B62D1354B1B68002B5ED050
:1022D0002FE0344BDB68DB68FB60FB681833184683
:1022E000FFF75CF8FB6804331846FFF757F8FB6804
:1022F000DA6A2D4B1B689A4203D9FB68DB6A2A4ACB
:102300001360FB68DA6A13469B0013449B00274A5C
:102310001A44FB68043319461046FEF7E4FFFB68D5
:10232000DA6A234B1B68DB6A9A4202D3214B0122F3
:102330001A601C4B1B68002BCBD1FB68002B01D013
:1023400000F056FB1C4B1B687B607B68002B10D099
:1023500000F044F80346002B02D0164B01221A600D
:102360007B68013B7B607B68002BF1D1124B002224
:102370001A60104B1B68002B09D00123BB600F4B68
:102380004FF080521A60BFF34F8FBFF36F8F01F091
:10239000ADF8BB6818461037BD4680BD3010002030
:1023A00008100020C80F002010100020380B00205B
:1023B000340B00201C1000201810002004ED00E059
:1023C00080B483B000AF044B1B687B607B68184609
:1023D0000C37BD4680BC70470C10002080B586B01D
:1023E00000AF00237B614F4B1B68002B40F09080B7
:1023F0004D4B1B6801333B614B4A3B6913603B69A2
:10240000002B21D1494B1B681B68002B0BD04FF0D0
:10241000500383F31188BFF36F8FBFF34F8F3B607F
:1024200000BF00BFFDE7414B1B68FB60404B1B68D2
:102430003E4A13603E4AFB6813603E4B1B68013303
:102440003C4A136000F0D4FA3B4B1B683A699A424D
:1024500049D3364B1B681B68002B04D1364B4FF019
:10246000FF321A603FE0314B1B68DB68DB68BB6002
:10247000BB685B687B603A697B689A4203D22E4AEC
:102480007B6813602FE0BB6804331846FEF786FFB5
:10249000BB689B6A002B04D0BB6818331846FEF754
:1024A0007DFFBB68DA6A254B1B689A4203D9BB687B
:1024B000DB6A224A1360BB68DA6A13469B00134446
:1024C0009B001F4A1A44BB68043319461046FEF7A6
:1024D0000AFFBB68DA6A1B4B1B68DB6A9A42B8D3F7
:1024E00001237B61B5E7174B1B68DA6A1449134671
:1024F0009B0013449B000B441B68012B01D9012353
:102500007B61114B1B68002B07D001237B6104E02A
:102510000E4B1B6801330D4A13607B691846183750
:10252000BD4680BD301000200C100020C00F0020E0
:10253000C40F0020201000202810002010100020C0
:10254000380B0020340B00201C1000201810002035
:1025500080B485B000AF284B1B68002B03D0274BFD
:1025600001221A6042E0254B00221A60244B1B68AE
:10257000FB6011E0FB68002B0BD14FF0500383F39D
:102580001188BFF36F8FBFF34F8F7B6000BF00BF19
:10259000FDE7FB68013BFB601A49FA6813469B00A4
:1025A00013449B000B441B68002BE3D0FA681346CE
:1025B0009B0013449B00134A1344BB60BB685B68D9
:1025C0005A68BB685A60BB685A68BB6808339A424D
:1025D00004D1BB685B685A68BB685A60BB685B68BB
:1025E000DB68094A1360064AFB68136000BF1437B2
:1025F000BD4680BC704700BF301000201C1000207A
:1026000010100020380B0020340B002080B584B05F
:1026100000AF786039607B68002B0BD14FF050031E
:1026200083F31188BFF36F8FBFF34F8FFB6000BF41
:1026300000BFFDE7074B1B68183319467868FEF7A3
:1026400075FE0121386800F081FA00BF1037BD46E1
:1026500080BD00BF340B002080B586B000AFF860AD
:10266000B9607A60FB68002B0BD14FF0500383F305
:102670001188BFF36F8FBFF34F8F7B6100BF00BF27
:10268000FDE70A4B1B6818331946F868FEF72BFE66
:102690007B68002B02D04FF0FF33BB607968B868CD
:1026A00000F054FA00BF1837BD4680BD340B00203F
:1026B00080B586B000AF78607B68DB68DB683B6123
:1026C0003B69002B0BD14FF0500383F31188BFF30C
:1026D0006F8FBFF34F8FFB6000BF00BFFDE73B690B
:1026E00018331846FEF75AFE1D4B1B68002B1DD1F0
:1026F0003B6904331846FEF751FE3B69DA6A194B11
:102700001B689A4203D93B69DB6A164A13603B692E
:10271000DA6A13469B0013449B00134A1A443B6930
:10272000043319461046FEF7DEFD05E03B69183319
:1027300019460E48FEF7D7FD3B69DA6A0C4B1B6859
:10274000DB6A9A4205D901237B610A4B01221A6098
:1027500001E000237B617B6918461837BD4680BDC8
:102760003010002010100020380B0020C80F00206F
:10277000340B00201C10002080B483B000AF7860C0
:10278000064B1A687B681A60054B1A687B685A60AA
:1027900000BF0C37BD4680BC704700BF2010002032
:1027A0000C10002080B588B000AF786039607B687D
:1027B000002B0BD14FF0500383F31188BFF36F8FC1
:1027C000BFF34F8F3B6100BF00BFFDE73B68002BAD
:1027D0000BD14FF0500383F31188BFF36F8FBFF31A
:1027E0004F8FFB6000BF00BFFDE700F04FFE1D4BA9
:1027F0001B68BB617B685B68BA69D31A7B613B6805
:102800001B68B3F1FF3F02D10023FB6123E07B682B
:102810001A68154B1B689A4207D07B685B68BA69D7
:102820009A4202D30123FB6115E03B681B687A6979
:102830009A420BD23B681A687B69D21A3B681A60CD
:102840007868FFF799FF0023FB6104E03B680022F2
:102850001A600123FB6100F049FEFB69184620372E
:10286000BD4680BD0C1000202010002080B400AFB9
:10287000034B01221A6000BFBD4680BC704700BFF9
:102880001C10002080B582B000AF786000F052F8D4
:10289000064B1B68012BF9D9054B4FF080521A608B
:1028A000BFF34F8FBFF36F8FF0E700BF380B0020EF
:1028B00004ED00E080B582B000AF00237B600CE047
:1028C0007A6813469B0013449B00124A134418462F
:1028D000FEF7DEFC7B6801337B607B68372BEFD92A
:1028E0000D48FEF7D5FC0D48FEF7D2FC0C48FEF76C
:1028F000CFFC0C48FEF7CCFC0B48FEF7C9FC0B4B99
:10290000054A1A600A4B054A1A6000BF0837BD46DF
:1029100080BD00BF380B0020980F0020AC0F0020B6
:10292000C80F0020DC0F0020F40F0020C00F002093
:10293000C40F002080B582B000AF19E000F0A6FD02
:10294000104BDB68DB687B607B6804331846FEF75E
:1029500025FD0D4B1B68013B0B4A13600B4B1B689D
:10296000013B0A4A136000F0C1FD786800F010F8DE
:10297000064B1B68002BE1D100BF00BF0837BD46E6
:1029800080BD00BFDC0F002008100020F00F0020E9
:1029900080B584B000AF78607B6893F85930002B25
:1029A00008D17B681B6B184600F040FF786800F088
:1029B0003DFF19E07B6893F85930012B03D178680B
:1029C00000F034FF10E07B6893F85930022B0BD0F5
:1029D0004FF0500383F31188BFF36F8FBFF34F8F16
:1029E000FB6000BF00BFFDE700BF1037BD4680BDE4
:1029F00080B483B000AF0C4B1B681B68002B04D164
:102A00000A4B4FF0FF321A6008E0074B1B68DB6887
:102A1000DB687B607B685B68044A136000BF0C372F
:102A2000BD4680BC704700BFC00F002028100020AA
:102A300080B483B000AF0B4B1B68002B02D1012385
:102A40007B6008E0084B1B68002B02D102237B60EF
:102A500001E000237B607B6818460C37BD4680BCD4
:102A6000704700BF141000203010002080B586B0E1
:102A700000AF78607B683B6100237B617B68002B43
:102A800058D02F4B1B683A699A420BD04FF0500335
:102A900083F31188BFF36F8FBFF34F8FFB6000BFCD
:102AA00000BFFDE73B691B6D002B0BD14FF05003BE
:102AB00083F31188BFF36F8FBFF34F8FBB6000BFED
:102AC00000BFFDE73B691B6D5A1E3B691A653B69F8
:102AD000DA6A3B69DB6C9A422CD03B691B6D002B98
:102AE00028D13B6904331846FEF758FC3B69DA6C81
:102AF0003B69DA623B69DB6AC3F138023B699A6180
:102B00003B69DA6A0F4B1B689A4203D93B69DB6A5F
:102B10000C4A13603B69DA6A13469B0013449B001E
:102B2000094A1A443B69043319461046FEF7DBFB99
:102B300001237B617B6918461837BD4680BD00BF05
:102B4000340B002010100020380B002080B584B01A
:102B500000AF78603960214B1B68FB60204B1B681D
:102B600004331846FEF71AFC7B68B3F1FF3F0AD125
:102B70003B68002B07D01A4B1B68043319461948D1
:102B8000FEF7B1FB26E0FA687B681344BB60144B88
:102B90001B68BA685A60BA68FB689A4209D2124B3D
:102BA0001A680F4B1B68043319461046FEF7BEFB2C
:102BB00010E00E4B1A680A4B1B6804331946104686
:102BC000FEF7B4FB0A4B1B68BA689A4202D2084A65
:102BD000BB68136000BF1037BD4680BD0C100020DD
:102BE000340B0020F40F0020C40F0020C00F002081
:102BF0002810002080B58AB004AF00237B6100F06C
:102C000011FB1D4B1B68002B21D00023FB60002310
:102C1000BB603A1D07F1080107F10C031846FEF7E7
:102C20001DFB7968BB68FA68029201930223009346
:102C300000230A4611491248FFF7D2F80346114A09
:102C40001360104B1B68002B01D001237B617B6953
:102C5000002B0BD14FF0500383F31188BFF36F8F1C
:102C6000BFF34F8F3B6100BF00BFFDE77B69184694
:102C70001837BD4680BD00BF64100020CC3B000863
:102C8000C12D00086810002080B58AB000AFF86040
:102C9000B9607A603B6000237B62FB68002B0BD13C
:102CA0004FF0500383F31188BFF36F8FBFF34F8F43
:102CB0003B6200BF00BFFDE7194B1B68002B2AD009
:102CC000BB683B617B687B61FB68BB61BB68052BB4
:102CD00018DCFFF7ADFE0346022B09D1104B186834
:102CE00007F1100100233A6BFEF78CFC786212E0CA
:102CF0000B4B186807F1100100230022FEF782FC3D
:102D0000786208E0064B186807F1100100233A6862
:102D1000FEF77AFD78627B6A18462837BD4680BD8B
:102D20006410002080B588B002AF78603960234B12
:102D30001B68DB68DB687B617B6904331846FEF740
:102D40002DFB7B6993F8283003F00403002B23D07C
:102D50007B699A697B68D1187B683A68786900F06A
:102D6000D3F80346002B20D00023009300237A6879
:102D700000217869FFF788FF38613B69002B14D187
:102D80004FF0500383F31188BFF36F8FBFF34F8F62
:102D9000FB6000BF00BFFDE77B6993F8283023F09C
:102DA0000103DAB27B6983F828207B691B6A7869A2
:102DB000984700BF1837BD4680BD00BF5C1000209B
:102DC00080B584B000AF786007F10803184600F0C2
:102DD00059F8F860BB681946F86800F005F800F08B
:102DE000D5F800BFF0E7000080B584B000AF786090
:102DF0003960FFF739FA07F10803184600F064F864
:102E0000F860BB68002B30D13B68002B0AD17A6890
:102E1000FB689A4206D8FFF735FAF9687868FFF739
:102E200081FF24E03B68002B08D0134B1B681B6814
:102E3000002B01D1012300E000233B600F4B1868F9
:102E40007A68FB68D31A3A681946FEF795FFFFF7D0
:102E500019FA0346002B0AD1094B4FF080521A6031
:102E6000BFF34F8FBFF36F8F01E0FFF70BFA00BF87
:102E70001037BD4680BD00BF6010002064100020E8
:102E800004ED00E080B485B000AF78600D4B1B68A6
:102E90001B68002B01D1012200E000227B681A6030
:102EA0007B681B68002B05D1064B1B68DB681B6821
:102EB000FB6001E00023FB60FB6818461437BD4649
:102EC00080BC70475C10002080B584B000AF786093
:102ED000FFF776FAF8600B4B1B68FA689A4205D246
:102EE00000F03AF97B6801221A6002E07B68002258
:102EF0001A60044AFB681360FB6818461037BD4629
:102F000080BD00BF6C10002080B586B000AFF860B7
:102F1000B9607A603B6000237B61FB68BA685A60E5
:102F2000FB68FA681A61BA687B689A4212D87A68B4
:102F30003B68D21AFB689B699A4202D301237B61EA
:102F40001BE0104B1A68FB68043319461046FEF765
:102F5000EDF912E07A683B689A4206D2BA683B689B
:102F60009A4202D301237B6107E0074B1A68FB6892
:102F7000043319461046FEF7D9F97B69184618370D
:102F8000BD4680BD601000205C10002080B58EB072
:102F900002AFCEE07B68002B19DA3B1D0433FB62E5
:102FA000FB6A002B0BD14FF0500383F31188BFF362
:102FB0006F8FBFF34F8FFB6100BF00BFFDE7FB6A60
:102FC0001B68FA6A5068FA6A9268114698477B68EB
:102FD000002BC0F2AE80FB68BB62BB6A5B69002B52
:102FE00004D0BB6A04331846FEF7D8F93B461846AE
:102FF000FFF76AFF78627B68092B00F2978001A2D5
:1030000052F823F02D3000082D3000082D30000834
:10301000A3300008B7300008033100082D30000845
:103020002D300008A3300008B7300008BB6A93F8C1
:10303000283043F00103DAB2BB6A83F82820BA686B
:10304000BB6A9B69D118BB687A6AB86AFFF75CFFF4
:103050000346002B6CD0BB6A1B6AB86A9847BB6AF0
:1030600093F8283003F00403002B61D0BA68BB6AE0
:103070009B691A440023009300230021B86AFFF7DC
:1030800003FE38623B6A002B52D14FF0500383F3AA
:103090001188BFF36F8FBFF34F8FBB6100BF00BFBD
:1030A000FDE7BB6A93F8283023F00103DAB2BB6A6C
:1030B00083F828203DE0BB6A93F8283043F00103F1
:1030C000DAB2BB6A83F82820BA68BB6A9A61BB6A25
:1030D0009B69002B0BD14FF0500383F31188BFF392
:1030E0006F8FBFF34F8F7B6100BF00BFFDE7BB6AEF
:1030F0009A697B6AD1187B6A7A6AB86AFFF704FF1B
:1031000017E0BB6A93F8283003F00203002B03D1C9
:10311000B86A00F08BFB0CE0BB6A93F8283023F010
:103120000103DAB2BB6A83F8282002E000BF00E0A6
:1031300000BF084B1B68391D00221846FEF702FC31
:103140000346002B7FF426AF00BF00BF3037BD46DB
:1031500080BD00BF6410002080B588B002AF49E098
:103160002E4B1B68DB681B683B612C4B1B68DB68C4
:10317000DB68FB60FB6804331846FEF70FF9FB6859
:103180001B6AF8689847FB6893F8283003F004033B
:10319000002B2FD0FB689B693A691344BB60BA6867
:1031A0003B699A420ED9FB68BA685A60FB68FA68B4
:1031B0001A611A4B1A68FB68043319461046FEF769
:1031C000B5F817E00023009300233A690021F8685E
:1031D000FFF75AFD78607B68002B0BD14FF050034E
:1031E00083F31188BFF36F8FBFF34F8F3B6000BF36
:1031F00000BFFDE7094B1B681B68002BB0D1074BD4
:103200001B687B61064B1B68044A1360044A7B6998
:10321000136000BF1837BD4680BD00BF5C100020A2
:103220006010002080B582B002AF00F02FF9154B7E
:103230001B68002B20D11448FEF72AF81348FEF72C
:1032400027F8134B104A1A60124B104A1A600023D9
:103250000093114B114A10210A20FEF733F903465F
:10326000084A1360074B1B68002B05D0054B1B68F1
:103270000B491846FEF758FD00F038F900BFBD466F
:1032800080BD00BF641000203410002048100020D2
:103290005C10002060100020101100207010002031
:1032A000D43B000880B485B000AFF860B9607A60A4
:1032B000FB68043BFB60FB684FF080721A60FB68A0
:1032C000043BFB60BB6823F00102FB681A60FB68EB
:1032D000043BFB60084AFB681A60FB68143BFB6018
:1032E0007A68FB681A60FB68203BFB60FB68184645
:1032F0001437BD4680BC7047FD32000880B485B0ED
:1033000000AF00237B60124B1B68B3F1FF3F0BD073
:103310004FF0500383F31188BFF36F8FBFF34F8FCC
:10332000FB6000BF00BFFDE74FF0500383F311883F
:10333000BFF36F8FBFF34F8FBB6000BF00BF7B68D1
:10334000002BFCD000BF00BF1437BD4680BC7047C7
:103350001800002000000000000000000000000035
:10336000074B19680868B0E8F00F80F30988BFF3CD
:103370006F8F4FF0000080F311884EF00D0E7047F4
:10338000340B002000BF00BF06480068006880F3CF
:10339000088862B661B6BFF34F8FBFF36F8F00DF4F
:1033A00000BF00BF08ED00E080B584B000AF324B35
:1033B000FB60FB681B78DBB27B60FB68FF221A7046
:1033C000FB681B78DBB2FB70FB78DBB203F05003C9
:1033D000DAB22A4B1A702A4B07221A6009E0284BEE
:1033E0001B68013B264A1360FB78DBB25B00DBB253
:1033F000FB70FB78DBB203F08003802BEFD0204B17
:103400001B68C3F10703042B0BD04FF0500383F369
:103410001188BFF36F8FBFF34F8FBB6000BF00BF3A
:10342000FDE7174B1B681B02154A1360144B1B6802
:1034300003F4E063124A13607B68DAB2FB681A7027
:10344000104B1B680F4A43F4700313600D4B1B684D
:103450000C4A43F07043136000F0B8F80A4B0022A6
:103460001A60FFF791FFFFF773F8FFF747FF00239C
:1034700018461037BD4680BD00E400E06011002012
:103480006411002020ED00E01800002080B483B01B
:1034900000AF4FF0500383F31188BFF36F8FBFF37A
:1034A0004F8F7B6000BF0F4B1B6801330D4A1360C9
:1034B0000C4B1B68012B10D10B4B1B68DBB2002B94
:1034C0000BD04FF0500383F31188BFF36F8FBFF31E
:1034D0004F8F3B6000BF00BFFDE700BF0C37BD460C
:1034E00080BC70471800002004ED00E080B483B079
:1034F00000AF124B1B68002B0BD14FF0500383F32E
:103500001188BFF36F8FBFF34F8F7B6000BF00BF89
:10351000FDE70A4B1B68013B084A1360074B1B6819
:10352000002B05D100233B603B6883F3118800BF6B
:1035300000BF0C37BD4680BC704700BF180000209C
:10354000EFF30980BFF36F8F0D4B1A6820E9F00F7E
:1035500010602DE908404FF0500080F31188FEF70D
:10356000F7FF4FF0000080F31188BDE808401968AC
:103570000868B0E8F00F80F30988BFF36F8F7047D9
:10358000340B002000BF00BF80B582B000AF4FF009
:10359000500383F31188BFF36F8FBFF34F8F7B60AE
:1035A00000BFFEF71BFF0346002B03D0064B4FF076
:1035B00080521A6000233B603B6883F3118800BF90
:1035C00000BF0837BD4680BD04ED00E080B400AF09
:1035D0000A4B00221A600A4B00221A60094B1B6832
:1035E000094AA2FB03239B09084A013B1360034BD2
:1035F00007221A6000BFBD4680BC704710E000E0A3
:1036000018E000E010000020D34D621014E000E04C
:1036100080B485B000AFEFF30583FB60FB680F2B30
:1036200015D9174AFB6813441B78FB72154B1B789E
:10363000FA7A9A420BD24FF0500383F31188BFF30A
:103640006F8FBFF34F8F7B6000BF00BFFDE70E4B56
:103650001B6803F4E0620D4B1B689A420BD94FF0D4
:10366000500383F31188BFF36F8FBFF34F8F3B601D
:1036700000BF00BFFDE700BF1437BD4680BC7047E8
:10368000F0E300E0601100200CED00E06411002088
:1036900080B58AB000AF78600023FB61FEF7E4FDDF
:1036A0005C4B1B68002B01D100F024F95A4B1A68BF
:1036B0007B681340002B40F095807B68002B1ED068
:1036C00008227B6813447B607B6803F00703002BB0
:1036D00015D07B6823F0070308337B607B6803F019
:1036E0000703002B0BD04FF0500383F31188BFF377
:1036F0006F8FBFF34F8F7B6100BF00BFFDE77B681B
:10370000002B6FD0454B1B687A689A426AD8444BAD
:103710003B62434B1B687B6204E07B6A3B627B6AD3
:103720001B687B627B6A5B687A689A4203D97B6A12
:103730001B68002BF1D1374B1B687A6A9A4251D033
:103740003B6A1B6808221344FB617B6A1A683B6A68
:103750001A607B6A5A687B68D21A08235B009A4217
:1037600020D97A6A7B681344BB61BB6903F0070305
:10377000002B0BD04FF0500383F31188BFF36F8FF2
:10378000BFF34F8F3B6100BF00BFFDE77B6A5A6804
:103790007B68D21ABB695A607B6A7A685A60B869DA
:1037A00000F00AF91D4B1A687B6A5B68D31A1B4A42
:1037B00013601A4B1A681B4B1B689A4203D2174BB3
:1037C0001B68184A13607B6A5A68134B1B681A43BC
:1037D0007B6A5A607B6A00221A60134B1B680133B4
:1037E000114A1360FEF74EFDFB6903F00703002B3F
:1037F0000BD04FF0500383F31188BFF36F8FBFF3EB
:103800004F8FFB6000BF00BFFDE7FB6918462837FC
:10381000BD4680BD701D0020841D0020741D002049
:10382000681D0020781D00207C1D002080B586B01A
:1038300000AF78607B687B617B68002B4FD00823EA
:103840005B427A6913447B617B693B613B695A68DF
:10385000254B1B681340002B0BD14FF0500383F313
:103860001188BFF36F8FBFF34F8FFB6000BF00BFA6
:10387000FDE73B691B68002B0BD04FF0500383F32F
:103880001188BFF36F8FBFF34F8FBB6000BF00BFC6
:10389000FDE73B695A68144B1B681340002B1ED090
:1038A0003B691B68002B1AD13B695A680E4B1B6899
:1038B000DB431A403B695A60FEF7D6FC3B695A6805
:1038C0000A4B1B681344094A1360386900F074F806
:1038D000074B1B680133064A1360FEF7D3FC00BF99
:1038E0001837BD4680BD00BF841D0020741D002018
:1038F000801D002080B485B000AF4FF44063BB60F2
:10390000274BFB60FB6803F00703002B0CD0FB6820
:103910000733FB60FB6823F00703FB60BA68FB68B2
:10392000D31A1F4A1344BB60FB687B601D4A7B6847
:1039300013601C4B00225A607B68BA681344FB601A
:103940000822FB689B1AFB60FB6823F00703FB60FF
:10395000FB68154A1360144B1B6800225A60124B17
:103960001B6800221A607B683B603B68FA68D21AC9
:103970003B685A600C4B1A683B681A603B685B688E
:103980000A4A13603B685B68094A1360094B4FF0B1
:1039900000421A6000BF1437BD4680BC704700BFAC
:1039A00068110020681D0020701D0020781D002077
:1039B000741D0020841D002080B485B000AF7860A5
:1039C000274BFB6002E0FB681B68FB60FB681B6821
:1039D0007A689A42F7D8FB68BB60FB685B68BA6894
:1039E00013447A689A4208D1FB685A687B685B681E
:1039F0001A44FB685A60FB687B607B68BB607B682D
:103A00005B68BA681A44FB681B689A4218D1FB6865
:103A10001A68144B1B689A420DD07B685A68FB6881
:103A20001B685B681A447B685A60FB681B681A68ED
:103A30007B681A6008E00B4B1A687B681A6003E029
:103A4000FB681A687B681A60FA687B689A4202D041
:103A5000FB687A681A6000BF1437BD4680BC7047A7
:103A6000681D0020701D002003460244934200D1CF
:103A7000704703F8011BF9E770B500260C4D0D4C9B
:103A8000641BA410A64209D100F028F800260A4DB4
:103A90000A4C641BA410A64205D170BD55F8043B26
:103AA00098470136EEE755F8043B98470136F2E7B0
:103AB000BC3D0008BC3D0008BC3D0008C03D0008FE
:103AC0000A44914200F1FF3300D1704710B511F85C
:103AD000014B914203F8014FF9D110BDF8B500BF79
:103AE000F8BC08BC9E467047F8B500BFF8BC08BCDF
:043AF0009E46704737
:103AF4004D61696C626F78206973206E6F74206504
:103B04006D7074792121212121212121212121215B
:103B1400212121210D0A000054782074696D656FFC
:103B240075742121212121212121212121212121DA
:103B340021212121210D0A00636865636B73756D72
:103B4400206661696C6564212121212121212121C3
:103B5400212121210D0A00005278204649464F3088
:103B640020697320656D707479212121212121211F
:103B740021212121210D0A002A204D41494E204DA9
:103B8400454E55202A00000053504545440000008E
:103B940052504D0054454D50000000005448524FBF
:103BA40054544C450000000054454D504552415476
:103BB40055524500446973706C6179004F4244006A
:103BC40049444C4500000000546D72205376630054
:103BD400546D725100000000000000000000005FFE
:103BE40000000007000700147F147F14242A7F2A92
:103BF400122313086462364955225000050300005D
:103C0400001C2241000041221C00082A1C2A08082A
:103C1400083E080800503000000808080808006042
:103C240060000020100804023E5149453E00427FD6
:103C3400400042615149462141454B311814127FDD
:103C44001027454545393C4A494930017109050366
:103C54003649494936064949291E003636000000CE
:103C6400563600000008142241141414141441227E
:103C74001408000201510906324979413E7E1111AE
:103C8400117E7F494949363E414141227F414122CB
:103C94001C7F494949417F090901013E4141513293
:103CA4007F0808087F00417F41002040413F017F99
:103CB400081422417F404040407F0204027F7F0479
:103CC40008107F3E4141413E7F090909063E4151AA
:103CD400215E7F09192946464949493101017F017D
:103CE400013F4040403F1F2040201F7F2018207F7D
:103CF40063140814630304780403615149454300C1
:103D0400007F4141020408102041417F0000040269
:103D14000102044040404040000102040020545489
:103D240054787F4844443838444444203844444810
:103D34007F3854545418087E090102081454543C22
:103D44007F0804047800447D40002040443D000086
:103D54007F10284400417F40007C041804787C08CC
:103D640004047838444444387C14141408081414A3
:103D7400187C7C080404084854545420043F4440EC
:103D8400203C4040207C1C2040201C3C4030403CD7
:103D940044281028440C5050503C4464544C440073
:103DA4000836410000007F00000041360800080882
:083DB4002A1C08081C2A08085B
:043DBC0035010008C5
:043DC00011010008E5
:103DC400000100000000000038000020380000203E
:0C3DD40000127A0001000000AAAAAAAAAE
:04000005080011BD21
:00000001FF
